:030000000207D91B
:0C07D900787FE4F6D8FD75813C02082012
:1006AF0002080000011600010A00010E00011500EA
:1006BF00011014010B00010F01020C000002110BBD
:0506CF00B80213000059
:1002E700D2AF758911D2A9758CF0758ACBD28CD211
:1002F700AB758DEE758BEDD28EE4F533F534F516CF
:10030700F50AF50EF51520050A050DE50D70020530
:100317000CD2057B007A00790CAF12AE11120A1EBF
:10032700E53464C84533702AF533F53405160515E9
:10033700E515B40B03751501050BE50BC3941440C4
:1003470003750B14E50945086008E50915097002EE
:100357001508E516B43C05E4F516050AE50AB43CAC
:1003670005E4F50A050E300609300106300D0320B5
:100377000503E4F50BE50F24FE6041147003020446
:100387009F1470030204E12403600302050AE515C4
:10039700D394055007AF1012095C8007AF09AE0868
:1003A700120003200D05750F02D20DE50B641460D2
:1003B7000302030D750F04F50B02030DC3E5099442
:1003C700C0E50894A840067508A87509C02006600E
:1003D700D206D3E50994B8E50894A140087508A8A2
:1003E7007509C0804BE5094508700E74082509F5A5
:1003F7000974073508F508803774082509F5097465
:10040700073508F508FEAF097C077D08120522EDC0
:100417004C601DAE08AF097C077D08120522EF244A
:1004270001FFE43EFE7C077D081205108E088F0948
:1004370020014BD201C3E5099408E508940750074A
:10044700E4F508F509803774F82509F50974F835D6
:1004570008F508FEAF097C077D08120522ED4C6000
:100467001DAE08AF097C077D08120522EF2401FFA6
:10047700E43EFE7C077D081205108E088F09AF0940
:10048700AE0812000E200D05750F03D20DE50B64A3
:100497000A600302030D803AE510C3942D400375EB
:1004A700102D20060AD206E510642D6002051020E3
:1004B700010AD201E510641460021510AF10120989
:1004C70085200D05750F01D20DE50B640A60030247
:1004D700030D750F01F50B02030D1209FA200D0527
:1004E700750F01D20D200605750F01D206200105F3
:1004F700750F01D20130050302030D750F01D205F7
:0905070002030D750F0102030D42
:10092200FFC0FFF9FFA4FFB0FF99FF92FF82FFF81B
:10093200FF80FF90FF88FF83FFC6FFA1FF86FF8E27
:10094200FF8BFF9CFF40FF79FF24FF30FF19FF124E
:0A095200FF02FF78FF00FF10FFFF17
:1006D400012E08012F08013008013108C10FC11093
:1006E400C111C112013903013A03013B03013C0367
:1006F400012603012703012803012903C10401374B
:100704000102230078C181C186C18DC185C10AC19E
:1007140003C113C108013863013263012563013643
:1007240063022C2710022A0000013501C107C10011
:0E073400C18CC10BC10EC102C109023300000D
:03000B000205F0FB
:1005F000C0E0C0D0758CF0758ACB300B0BC20BC23B
:100600000ED207D20C75350130020BC202C209D2DC
:1006100007C20C753501300754200006852C2A8549
:100620002D2BE52B452A6008E52B152B7002152A8A
:10063000300C1C0535E535B40503753501E52B4552
:100640002A700CE535B40207C207D20E75350020BA
:100650000C1EE535B401037535051535E52B452A26
:10066000700EE535B40209C207D209800075350065
:10067000E53524FE600E1460111460182403701E0A
:10068000D2B2801CC2B2D2B38018C2B2C2B3D2B44A
:10069000C2B58012C2B2C2B3C2B4D2B58008C2B26F
:0F06A000C2B3C2B4C2B5A2079200D0D0D0E0322C
:03001B0002001EC2
:10001E00C0E0C083C082C0D0C2B7758DEE758BEDC7
:10002E000534E53470020533209523E538B46305B5
:10003E007538008021E538C3940250040538C20A91
:10004E00E538B40211200A02C206D20A8008300A2C
:10005E0005C20A753863209423E532B46305753200
:10006E00008021E532C3940250040532C203E5320A
:10007E00B40211200302C201D2038008300305C26C
:10008E0003753263209623E525B46305752500803C
:10009E0021E525C3940250040525C213E525B402BB
:1000AE0011201302C20DD2138008301305C213752E
:1000BE002563209723E536B463057536008021E568
:1000CE0036C3940250040536C208E536B402112038
:1000DE000802C205D2088008300805C208753663CA
:1000EE000537E537C394054003753701E5376401DD
:1000FE006003020252E526B40306E539640260216C
:10010E00E527B40306E53A64026016E528B4030653
:10011E00E53B6402600BE52964037021E53CB40203
:10012E001CE539B40202D20FE53AB40202D210E550
:10013E003BB40202D211E53CB40202D212E526B45F
:10014E000206E53964036021E527B40206E53A6448
:10015E00036016E528B40206E53B6403600BE5294F
:10016E0064027021E53CB4031CE539B40302C20FEE
:10017E00E53AB40302C210E53BB40302C211E53CFA
:10018E00B40302C212853926853A27853B28853C61
:10019E0029E53964026015E53A6402600FE53B64B7
:1001AE00026009E53C6402600302024CE5246478B7
:1001BE0045237007F523F5240202520524E5247029
:1001CE0002052364084523707B300F06E53964026F
:1001DE00601A301006E53A64026011301106E53BF4
:1001EE0064026008301209E53CB40204D2048002B5
:1001FE00C204E539B4020C300404C20F8005200499
:10020E0002D20FE53AB4020C300404C2108005206D
:10021E000402D210E53BB4020C300404C211800576
:10022E00200402D211E53CB4020C300404C2128048
:10023E0005200402D2127523007524008006752352
:10024E0000752478E53724FE60291460451460613A
:10025E002403707AC293E52E25E02422F582E4343D
:10026E0009F583740193F5A0300F04D290805FC21C
:10027E0090805BC290E52F25E02422F582E43409BC
:10028E00F583740193F5A0301004D2918040C29191
:10029E00803CC291E53025E02422F582E43409F554
:1002AE0083740193F5A0301104D2928021C2928002
:1002BE001DC292E53125E02422F582E43409F5834E
:1002CE00740193F5A0301204D2938002C293D2B778
:0902DE00D0D0D082D083D0E032F0
:050003007D0102074A27
:05000E007D0202074A1B
:06074A008D178F828E83E3
:100750007C007D1E1205227C007D3C120522AB0729
:10076000AA067C077D08120510C3E5829FFFE5837A
:100770009EFED3EF9400EE940040050BBB00010AEF
:10078000EAC313FEEB13FF7C007D0A1205228F18CB
:10079000EAC313FEEB13FF7C007D0A1205228D19BC
:1007A000EB540175F005A4F51AE5186005FBAD17CB
:1007B00080047B1CE4FD7F0112086DE5192412FB07
:1007C000AD177F0212086DAB1AAD177F0312086DCB
:0907D0007B10AD177F0402086DD7
:10095C008F17E51775F00A84FB7D017F0112086D76
:10096C00E5177D011208657B0C7D017F0312086D74
:09097C007B117D017F0402086D6E
:100985008F17E51775F00A84FB7D027F0112086D4C
:10099500E5177D021208657B0C7D017F0312086D4A
:0909A5007B117D017F0402086D45
:1009FA007B1CE4FD7F0112086D7B1CE4FD7F021263
:100A0A00086D7B1CE4FD7F0312086D7B1CE4FD7FEF
:040A1A000402086D5D
:0808650075F00A84ABF07F027C
:10086D00EF24FE602314603914604F240370638BF2
:10087D002EBD0203753902BD0105D20F753903ED89
:10088D007050C20F753903228B2FBD0203753A02CA
:10089D00BD0105D210753A03ED7037C210753A03DC
:1008AD00228B30BD0203753B02BD0105D211753B94
:1008BD0003ED701EC211753B03228B31BD02037512
:1008CD003C02BD0105D212753C03ED7005C21275D7
:0308DD003C0322B7
:07074200C115C114011B00E9
:1009AE00E4FDFC201508D20BD2158E2C8F2D3015A0
:1009BE000B300E087C007D01C20EC215ED64014C99
:0509CE007002D322C3FA
:0109D3002201
:1009D400E4FDFC201408D202D2148E2C8F2D301486
:1009E4000B3009087C007D01C209C214ED64014C7E
:0509F4007002D322C3D4
:0109F90022DB
:1008E000EEC313FEEF13FBAA06C216E51B7008AF9A
:1008F000031209AE751B02E51BB4020CAF03AE0276
:100900001209AE5003751B03E51BB4030EAF03AE13
:10091000021209D45005E4F51BD216301602D32278
:01092000C313
:0109210022B3
:100A1E008B178A18891912057745F060121208E0B3
:100A2E00500DAB17AA18A91974FFF5F01205A222E2
:1007E5000202E7E493A3F8E493A34003F68001F241
:1007F50008DFF48029E493A3F85407240CC8C33315
:10080500C4540F4420C8834004F456800146F6DFE3
:10081500E4800B01020408102040809006AFE47EBE
:10082500019360BCA3FF543F30E509541FFEE493D8
:10083500A360010ECF54C025E060A840B8E493A39F
:10084500FAE493A3F8E493A3C8C582C8CAC583CACA
:10085500F0A3C8C582C8CAC583CADFE9DEE780BE82
:0107490000AF
:10051000EF8DF0A4A8F0CF8CF0A428CE8DF0A42EFF
:02052000FE22B9
:10052200BC000BBE0029EF8DF084FFADF022E4CCBD
:10053200F875F008EF2FFFEE33FEEC33FCEE9DEC86
:10054200984005FCEE9DFE0FD5F0E9E4CEFD22EDCC
:10055200F8F5F0EE8420D21CFEADF075F008EF2F16
:10056200FFED33FD4007985006D5F0F222C398FD07
:050572000FD5F0EA22A4
:10057700BB010A89828A83E0F5F0A3E0225006874F
:10058700F009E71922BBFE07E3F5F009E319228911
:0B059700828A83E493F5F07401932244
:1005A200BB010789828A830205DA500B09C5F0274D
:1005B200F7C5F01937F722BBFE0D09F8E325F0F372
:1005C200C5F019E338F322F889828A8374019325EE
:0805D200F0C5F0F8E4933822B3
:1005DA00C5F0F8A3E028F0C5F0F8E58215827002AC
:0605EA001583E038F02249
:00000001FF
