:0300000002018575
:0C018500787FE4F6D8FD7581310201CCD2
:10028700011208011308011408011508012C0001C7
:100297002D00012E00013000012901010A01010F83
:1002A70001012B01010E01012A63011663010D6390
:1002B700012863011100010C000131000110001138
:1002C70017C0F9A4B0999282F880908883C6A18656
:0E02D7008E8B010800012F00010900010B00B1
:10021100E4F52CF52DF52EF530C290C291C292C2B3
:1002210093D2AF758911D2AB758DEE758BEDD28EF0
:10023100E50875F06484E5F075F00A84F50BE508CE
:1002410075F00A8485F009752F05752C01850B124F
:10025100752D01850913752E01852F1475300175D2
:100261001510E50F7011E508D3940B5004050880B3
:100271000375080C750F01E50A70B5E508600215F4
:0602810008750A0180AAC5
:03001B0002001EC2
:10001E00C0E0C0D075D000C000C2B7758DEE758B34
:10002E00ED209526E52AB46305752A008027E52A7A
:10003E00C394025005052A751100E52AB40216E58F
:10004E00117002F50F751101800BE511B4010675E3
:10005E001100752A63209423E516B4630575160006
:10006E008024E516C3940250050516750C00E5169E
:10007E00B40213750C01750A00800BE50CB4010671
:10008E00750C00751663209623E50DB46305750D8A
:10009E00008024E50DC394025005050D753100E571
:1000AE000DB40213753101752B00800BE531B401CF
:1000BE0006753100750D63209723E528B463057529
:1000CE0028008024E528C3940250050528751000E9
:1000DE00E528B40213751001750E00800BE510B4FF
:1000EE000106751000752863E52C700CE52D70085F
:1000FE00E52E7004E53060760529E529C3940540A8
:10010E0003752901E52924FE602114603514604928
:10011E002403705A74172512F8E6F5A0C293E52C45
:10012E00B40104D2908047C290804374172513F80F
:10013E00E6F5A0C290E52DB40104D2918030C291B3
:10014E00802C74172514F8E6F5A0C291E52EB401A3
:10015E0004D2928019C292801574172515F8E6F50F
:10016E00A0C292E530B40104D2938002C293D2B7FA
:07017E00D000D0D0D0E03228
:10019100020211E493A3F8E493A34003F68001F271
:1001A10008DFF48029E493A3F85407240CC8C3336F
:1001B100C4540F4420C8834004F456800146F6DF3E
:1001C100E4800B0102040810204080900287E47E45
:1001D100019360BCA3FF543F30E509541FFEE49333
:1001E100A360010ECF54C025E060A840B8E493A3FA
:1001F100FAE493A3F8E493A3C8C582C8CAC583CA25
:10020100F0A3C8C582C8CAC583CADFE9DEE780BEDC
:0102E5000018
:00000001FF
