:03000000020003F8
:0C000300787FE4F6D8FD75811502004AF4
:1001440002080001020C000102120001020A00016F
:040112007F0A7E00E2
:100116008E108F11D3E5119400E5109400401E75E2
:10012600140075157DE515151570021514E51545B0
:0E0136001470F2E511151170DB151080D72240
:1000D900209403120112209405E4F508F5092095EE
:1000E90003120112209505E4F50CF50D2096031273
:1000F9000112209605E4F512F51320970312011257
:09010900209705E4F50AF50B222C
:10008F001200D9E50945086012E50D450C600CE535
:10009F001345126006E50B450A702BC2B77FE87E49
:1000AF0003120116750800750901750C00750D0115
:1000BF00751200751301750A00750B01D294D29554
:0A00CF00D296D29780BAD2B780B65D
:10000F0002008FE493A3F8E493A34003F68001F278
:10001F0008DFF48029E493A3F85407240CC8C333F2
:10002F00C4540F4420C8834004F456800146F6DFC1
:10003F00E4800B0102040810204080900144E47E0C
:10004F00019360BCA3FF543F30E509541FFEE493B6
:10005F00A360010ECF54C025E060A840B8E493A37D
:10006F00FAE493A3F8E493A3C8C582C8CAC583CAA8
:10007F00F0A3C8C582C8CAC583CADFE9DEE780BE60
:0101540000AA
:00000001FF
