:030000000203797F
:0C037900787FE4F6D8FD7581460203C0D1
:100405000115080116080117080118080141000126
:1004150042000143000145000139010109C8013CC1
:1004250003013D03013E03013F03010B01011101DE
:10043500014001011001011300010D0001460001F9
:100445001200023A006302190063020E00630237CC
:1004550000631C1BC0F9A4B0999282F88090888330
:10046500C6A1868E8B9C4079243019120278001023
:0F047500010800014400010A00010C00011401FC
:10025500E4F541F542F543F545C290C291C292C21B
:1002650093D2AF758911D2AB758DEE758BEDD28EAC
:10027500E50875F06484E5F075F00A84F50CE50889
:1002850075F00A8485F00A754405E51424FE603787
:1002950014606114700302032724036003020373CF
:1002A5007B017D027F0112048B1204857B08E4FD2E
:1002B5007F0312048B7B08E4FD7F0412048BE54069
:1002C50070AE75140280557B017D027F0212048B8E
:1002D5007B08E4FD7F0112048B7B08E4FD7F03129C
:1002E500048B7B08E4FD7F0412048BE54070817567
:1002F500140380287B017D027F0312048B12048581
:100305007B08E4FD7F0112048B7B08E4FD7F04126A
:10031500048BE54060030202757514017540010206
:1003250002757B017D027F0412048B1204857B0814
:10033500E4FD7F0312048B7B08E4FD7F0112048B2F
:10034500E5407006751401754001E51170067514D8
:1003550001751101E50B7006751401750B01E510AA
:10036500600302027575140175100102027575149A
:04037500010202750A
:060485007B08E4FD7F028C
:10048B00EF24FE602414603B146052240370678BCE
:10049B0015BD0204753C0222BD01057541018005A5
:1004AB00ED7053F541753C03228B16BD0204753D6F
:1004BB000222BD01057542018005ED7039F54275CB
:1004CB003D03228B17BD0204753E0222BD0105754B
:1004DB0043018005ED701FF543753E03228B18BD5C
:1004EB000204753F0222BD01057545018005ED70C3
:0704FB0005F545753F0322E2
:03001B0002001EC2
:10001E00C0E0C0D075D000C000C2B7758DEE758B34
:10002E00ED209537E53B6463453A7006F53AF53BAE
:10003E008037C3E53B9402E53A9400500B053BE54F
:10004E003B7002053A751300E53B6402453A7019A0
:10005E00E5137002F511751301800EE513B4010955
:10006E00751300753A00753B63209437E51A646387
:10007E0045197006F519F51A8037C3E51A9402E58D
:10008E00199400500B051AE51A70020519750D002A
:10009E00E51A640245197019E50D7002F50B750D20
:1000AE0001800EE50DB40109750D00751900751A64
:1000BE0063209637E50F6463450E7006F50EF50F57
:1000CE008037C3E50F9402E50E9400500B050FE543
:1000DE000F7002050E754600E50F6402450E70198D
:1000EE00E5467002F540754601800EE546B40109FD
:1000FE00754600750E00750F63209737E5386463FB
:10010E0045377006F537F5388037C3E5389402E584
:10011E00379400500B0538E538700205377512001C
:10012E00E538640245377019E5127002F510751244
:10013E0001800EE512B4010975120075370075388D
:10014E0063E53C64026012E53D6402600CE53E64CA
:10015E00026006E53F6402705CE509B4C802805097
:10016E000509E50964327050E53CB4020DE541B471
:10017E0001057541008003754101E53DB4020DE5B1
:10018E0042B401057542008003754201E53EB4029A
:10019E000DE543B401057543008003754301E53F4A
:1001AE00B4020DE545B401057545008003754501A2
:1001BE0075090080037509C8E541700CE5427008A9
:1001CE00E5437004E54560760539E539C39405408D
:1001DE0003753901E53924FE602114603514604938
:1001EE002403705A741B2515F8E6F5A0C293E54159
:1001FE00B40104D2908047C2908043741B2516F838
:10020E00E6F5A0C290E542B40104D2918030C291CD
:10021E00802C741B2517F8E6F5A0C291E543B401B6
:10022E0004D2928019C2928015741B2518F8E6F537
:10023E00A0C292E545B40104D2938002C293D2B714
:07024E00D000D0D0D0E03257
:10038500020255E493A3F8E493A34003F68001F237
:1003950008DFF48029E493A3F85407240CC8C33379
:1003A500C4540F4420C8834004F456800146F6DF48
:1003B500E4800B0102040810204080900405E47ECF
:1003C500019360BCA3FF543F30E509541FFEE4933D
:1003D500A360010ECF54C025E060A840B8E493A304
:1003E500FAE493A3F8E493A3C8C582C8CAC583CA2F
:1003F500F0A3C8C582C8CAC583CADFE9DEE780BEE7
:010484000077
:00000001FF
