:0300000002087A79
:0C087A00787FE4F6D8FD7581440208C1C7
:05000E007D010207EB7B
:050013007D020207EB75
:0607EB008D3D8F828E831C
:1007F1007C007D1E1202ED7C007D3C1202EDAB07F8
:10080100AA067C077D081202DBC3E5829FFFE58310
:100811009EFED3EF9400EE940040050BBB00010A4D
:10082100EAC313FEEB13FF7C007D0A1202ED8F3E3B
:10083100EAC313FEEB13FF7C007D0A1202ED8D3F2C
:10084100EB540175F005A4F540E53E6005FBAD3DB7
:1008510080047B1CE4FD7F0112090EE53F2412FB9D
:10086100AD3D7F0212090EAB40AD3D7F0312090E73
:090871007B10AD3D7F0402090E6D
:100AF7008F1AE51A75F00A84FB7D017F0112090E32
:100B0700E51A7D011209067B0C7D017F0312090E90
:090B17007B117D017F0402090E2F
:100B20008F1FE51F75F00A84FB7D027F0112090EFD
:100B3000E51F7D021209067B0C7D017F0312090E61
:090B40007B117D017F0402090E06
:100B95007B1CE4FD7F0112090E7B1CE4FD7F021224
:100BA500090E7B1CE4FD7F0312090E7B1CE4FD7F0F
:040BB5000402090E1F
:0809060075F00A84ABF07F02DA
:10090E00EF24FE602314603914604F240370638B50
:10091E002EBD0203753902BD0105D20F753903EDE7
:10092E007050C20F753903228B2FBD0203753A0228
:10093E00BD0105D210753A03ED7037C210753A033A
:10094E00228B30BD0203753B02BD0105D211753BF2
:10095E0003ED701EC211753B03228B31BD02037570
:10096E003C02BD0105D212753C03ED7005C2127535
:03097E003C032215
:100C39003F065B4F666D7D077F6F777C395E797103
:0A0C4900BF86DBCFE6EDFD87FFEF6D
:1007510002080000011800010A0001100001170041
:10076100011214011616010B00011101020C000007
:0407710002140BB8AB
:100C5300EF4E60147DC87C00ED1D70011CED4C70DF
:080C6300F7EF1F70EB1E80E8A3
:010C6B002266
:100BFD00C2B07F677E00EF1F70011EEF4E70F7D2FF
:0E0C0D00B07E007F04EF1F70011EEF4E70F7E7
:010C1B0022B6
:100BB900C2B00FBF0000D2B00FBF00000FBF0000CE
:100BC900A2B092177E007F08EF1F70011EEF4E70D2
:030BD900F7A21769
:010BDC0022F6
:100C1C00E4FD7C01120BB9E433FFC433333354804D
:0C0C2C00FEEDC3134EFD0CBC09EAAF0541
:010C38002299
:0C09E600120BFD7F017E00120C537FCC31
:1009F2007E01EF139217EFC313FF30171BC2B00B28
:100A0200BB00000BBB0000D2B07A007B08EB1B706E
:100A1200011AEB4A70F7801BC2B07A007B08EB1B0D
:100A220070011AEB4A70F7D2B00BBB00010A0BBB84
:070A320000010A0EBE09BB22
:010A3900229A
:080003001209E67F440209F234
:100981001209E67FBE1209F2120C1CAB07120C1CF5
:10099100750E008F0FE50F750F00F50EAF03EF42D7
:1009A1000FE4AC0EAD0F120221E4FBFA7980783D21
:1009B1001201168F1D8E1C8D1B8C1AE4FFFE7D20EB
:1009C1007C41AB1DAA1CA91BA81A120116E4FBFA53
:1009D100F9783F12002512025A8E0E8F0FEF75F033
:0409E1000A84F51E71
:0109E50022EF
:100A7C00D2AF758911D2A9758CF0758ACBD28CD274
:100A8C00AB758DEE758BEDD28EE4F533F534F51830
:100A9C00F50AF510F51712000375190A1209818F62
:100AAC00161519E519D3940050F2AF16120AF780F7
:010ABC00E554
:07077500C115C1140144008D
:100B4900E4FDFC201508D20BD2158E2C8F2D301503
:100B59000B300E087C007D01C20EC215ED64014CFC
:050B69007002D322C35D
:010B6E002264
:100B6F00E4FDFC201408D202D2148E2C8F2D3014E9
:100B7F000B3009087C007D01C209C214ED64014CE1
:050B8F007002D322C337
:010B9400223E
:100A3A00EEC313FEEF13FBAA06C216E5447008AF15
:100A4A0003120B49754402E544B4020CAF03AE022B
:100A5A00120B495003754403E544B4030EAF03AEC9
:100A6A0002120B6F5005E4F544D216301602D32257
:010A7A00C3B8
:010A7B002258
:100BDD008B418A42894312034245F06012120A3A50
:100BED00500DAB41AA42A94374FFF5F012036D22DB
:100ABD00FFC0FFF9FFA4FFB0FF99FF92FF82FFF87F
:100ACD00FF80FF90FF88FF83FFC6FFA1FF86FF8E8B
:100ADD00FF8BFF9CFF40FF79FF24FF30FF19FF12B2
:0A0AED00FF02FF78FF00FF10FFFF7B
:10077C00012E08012F08013008013108C10FC110EA
:10078C00C111C112013903013A03013B03013C03BE
:10079C00012603012703012803012903C1040137A2
:1007AC000102230078C181C186C18DC185C10AC1F6
:1007BC0003C113C10801386301326301256301369B
:1007CC0063022C2710022A0000013501C107C10069
:0E07DC00C18CC10BC10EC102C1090233000065
:03000B0002069258
:10069200C0E0C0D0758CF0758ACB300B0BC20BC298
:1006A2000ED207D20C75350130020BC202C209D23A
:1006B20007C20C753501300754200006852C2A85A7
:1006C2002D2BE52B452A6008E52B152B7002152AE8
:1006D200300C1C0535E535B40503753501E52B45B0
:1006E2002A700CE535B40207C207D20E7535002018
:1006F2000C1EE535B401037535051535E52B452A84
:10070200700EE535B40209C207D2098000753500C2
:10071200E53524FE600E1460111460182403701E67
:10072200D2B2801CC2B2D2B38018C2B2C2B3D2B4A7
:10073200C2B58012C2B2C2B3C2B4D2B58008C2B2CC
:0F074200C2B3C2B4C2B5A2079200D0D0D0E03289
:03001B000203C914
:1003C900C0E0C083C082C0D0C2B7758DEE758BED19
:1003D9000534E53470020533209523E538B4630507
:1003E9007538008021E538C3940250040538C20AE3
:1003F900E538B40211200A02C206D20A8008300A7E
:1004090005C20A753863209423E532B46305753251
:10041900008021E532C3940250040532C203E5325B
:10042900B40211200302C201D2038008300305C2BD
:1004390003753263209623E525B46305752500808D
:1004490021E525C3940250040525C213E525B4020C
:1004590011201302C20DD2138008301305C213757F
:100469002563209723E536B463057536008021E5B9
:1004790036C3940250040536C208E536B402112089
:100489000802C205D2088008300805C2087536631B
:100499000537E537C394054003753701E53764012E
:1004A90060030205FDE526B40306E539640260210F
:1004B900E527B40306E53A64026016E528B40306A5
:1004C900E53B6402600BE52964037021E53CB40255
:1004D9001CE539B40202D20FE53AB40202D210E5A2
:1004E9003BB40202D211E53CB40202D212E526B4B1
:1004F9000206E53964036021E527B40206E53A649A
:10050900036016E528B40206E53B6403600BE529A0
:1005190064027021E53CB4031CE539B40302C20F3F
:10052900E53AB40302C210E53BB40302C211E53C4B
:10053900B40302C212853926853A27853B28853CB2
:1005490029E53964026015E53A6402600FE53B6408
:10055900026009E53C640260030205F7E52464785A
:1005690045237007F523F5240205FD0524E52470CC
:1005790002052364084523707B300F06E5396402C0
:10058900601A301006E53A64026011301106E53B45
:1005990064026008301209E53CB40204D204800206
:1005A900C204E539B4020C300404C20F80052004EA
:1005B90002D20FE53AB4020C300404C210800520BF
:1005C9000402D210E53BB4020C300404C2118005C8
:1005D900200402D211E53CB4020C300404C212809A
:1005E90005200402D21275230075240080067523A4
:1005F90000752478E53724FE60291460451460618C
:100609002403707AC293E52E25E024BDF582E434F3
:100619000AF583740193F5A0300F04D290805FC26C
:1006290090805BC290E52F25E024BDF582E4340A71
:10063900F583740193F5A0301004D2918040C291E2
:10064900803CC291E53025E024BDF582E4340AF509
:1006590083740193F5A0301104D2928021C2928053
:100669001DC292E53125E024BDF582E4340AF58303
:10067900740193F5A0301204D2938002C293D2B7C9
:09068900D0D0D082D083D0E03241
:10001E000202C6E86480F8E933E83360110460F048
:10002E00ED33EC337009E8FCE9FDEAFEEBFF220448
:10003E0060DED3EB9FEA9EE99DE8C2E78CF0C2F743
:10004E0095F0400CE8CCF8E9CDF9EACEFAEBCFFB0F
:10005E0012029185D0F05804700320D5B3E80470D5
:10006E00075002B2D50202D092D5EC0460F7E4CC70
:10007E00C0E0C398F8603B94186008400DD0E0FBD8
:10008E000202A8E4FBFAC9FC8028E830E406E4C9C1
:10009E00FBE4CAFCE830E305E4C9CACBFCE854072C
:1000AE006010F8C3E913F9EA13FAEB13FBEC13FC37
:1000BE00D8F130F52FC3E49CFCEF9BFFEE9AFEEDDA
:1000CE0099FDD0E0FBEF4E4D4C701222DB03020285
:1000DE00CDEC2CFCEF33FFEE33FEED33FDED30E7D0
:1000EE00EB0202A8EF2BFFEE3AFEED39FDD0E0FB5E
:1000FE0050130BBB00030202D0ED13FDEE13FEEF07
:08010E0013FFEC13FC0202A830
:10011600EC4D6011E8497017ED33EC3304600DE4E3
:10012600FCFFFEFD22E933E8330470F80202C61232
:10013600029158046009E4CC248150062850090233
:1001460002D02840030202CDC0E0EB4A7044B980D9
:1001560006D0E0FB0202BCEF4E701CBD8008EBFF30
:10016600EAFEE9FD80EBE98DF0A4FEE5F00201FF71
:10017600E9CDF9EAFEEBFFEF89F0A4FCE5F0CE89C4
:10018600F0A42EFFE435F0CD89F0A42DFEE435F081
:100196008067EF4E7005BD80D780C3EF8BF0A4ACAF
:1001A600F0EE8BF0A42CFCE435F0F8EF8AF0A42CEA
:1001B600E5F038FCE433CB8DF0A42CFCE5F03BF8FD
:1001C600EE8AF0A42CFCE5F038F8E433CF89F0A4ED
:1001D6002CFCE5F038CF3400CE89F0A42FFFE5F0F3
:1001E6003EFEE433C98DF0A42EFEE5F039CD8AF04B
:1001F600A42FFFE5F03EFEE43DFD33D0E0FB5007C3
:100206000BBB000F0202D0EC2CFCEF33FFEE33FEEB
:06021600ED33FD0202A819
:10021C0075F020800E75F010800575F0087D007E5D
:10022C00007F003392D530D5031203A5EC33401078
:10023C00EF33FFEE33FEED33FDEC33FCD5F0ED2266
:0E024C00E5F0247EA2D513CC92E7CDCEFF22A2
:10025A00EDD2E7CD33EC3392D524814006E4FFFE9C
:10026A00FDFC22FCE4CFCECDCC24E0501174FF80FB
:10027A00EDC3CC13CCCD13CDCE13CECF13CF047098
:07028A00F030D5DE0203A5F0
:10029100E9D2E7C933E833F892D5EDD2E7CD33ECB3
:0702A10033FC5002B2D5222C
:1002A800EC30E7100FBF000C0EBE00080DBD0004B7
:1002B8000BEB6014A2D5EB13FCED92E7FD2274FF63
:1002C800FCFDFEFF22E480F8A2D574FF13FC7D80BC
:0302D800E480EFD0
:10088600020A7CE493A3F8E493A34003F68001F202
:1008960008DFF48029E493A3F85407240CC8C33373
:1008A600C4540F4420C8834004F456800146F6DF42
:1008B600E4800B0102040810204080900751E47E7A
:1008C600019360BCA3FF543F30E509541FFEE49337
:1008D600A360010ECF54C025E060A840B8E493A3FE
:1008E600FAE493A3F8E493A3C8C582C8CAC583CA29
:1008F600F0A3C8C582C8CAC583CADFE9DEE780BEE1
:0107EA00000E
:1002DB00EF8DF0A4A8F0CF8CF0A428CE8DF0A42E37
:0202EB00FE22F1
:1002ED00BC000BBE0029EF8DF084FFADF022E4CCF5
:1002FD00F875F008EF2FFFEE33FEEC33FCEE9DECBE
:10030D00984005FCEE9DFE0FD5F0E9E4CEFD22ED03
:10031D00F8F5F0EE8420D21CFEADF075F008EF2F4D
:10032D00FFED33FD4007985006D5F0F222C398FD3E
:05033D000FD5F0EA22DB
:10034200BB010A89828A83E0F5F0A3E02250068786
:10035200F009E71922BBFE07E3F5F009E319228948
:0B036200828A83E493F5F0740193227B
:10036D00BB010789828A830203B3500B09C5F027AD
:10037D00F7C5F01937F722BBFE0D09F8E325F0F3A9
:10038D00C5F019E338F322F889828A837401932525
:08039D00F0C5F0F8E4933822EA
:0E03A500C3E49FFFE49EFEE49DFDE49CFC2269
:1003B300C5F0F8A3E028F0C5F0F8E58215827002D5
:0603C3001583E038F02272
:00000001FF
