:03000000020306F2
:0C030600787FE4F6D8FD75814402034DB9
:10040900011108011208011308011408013D000136
:100419003E00013F00014000013801020800780157
:100429003903013A03013B03013C03010B03010CAE
:1004390003010D03010E0301150001160001170048
:10044900011800010A031D1BC0F9A4B0999282F892
:1004590080908883C6A1868E8B9C4079243019129E
:0D04690002780010FF020F000002190000D1
:10025900E4F53DF53EF53FF540C290C291C292C228
:1002690093D2AF758911D2AB758DED758BFFD28E97
:10027900E4F544F543F542F541E47FCE7EFFFDFC0C
:10028900AB44AA43A942A841C312000350E2E47F48
:10029900CE7E7FFDFCA84112000340217B1CE4FDBA
:1002A9007F011203927B027D017F021203927B0779
:1002B9007D017F031203927B1CE4FD801F7B047D7B
:1002C900027F011203927B057D027F021203927B5A
:1002D9001CE4FD7F031203927B027D027F0412035B
:1002E90092E4FAF9F8E5442401F544EA3543F54383
:0D02F900E93542F542E83541F54102028247
:10039200EF24FE602414603B146052240370678BC8
:1003A20011BD0203753902BD0106753D01753903A0
:1003B200ED7053F53D753903228B12BD0203753A78
:1003C20002BD0106753E01753A03ED7039F53E75C1
:1003D2003A03228B13BD0203753B02BD0106753F32
:1003E20001753B03ED701FF53F753B03228B14BD76
:1003F2000203753C02BD0106754001753C03ED70B8
:0704020005F540753C0322E3
:03001B0002001EC2
:10001E00C0E0C0D075D000C000758DED758BFF05AA
:10002E0038E538C3940540037538010510E51070A6
:10003E0002050F6464450F7002C2B7E51064C8452F
:10004E000F7006D2B7F50FF510E5386401600302A4
:10005E0001D8E50BB40306E53964026021E50CB462
:10006E000306E53A64026016E50DB40306E53B644B
:10007E0002600BE50E64037025E53CB40220E53901
:10008E00B40203753D01E53AB40203753E01E53B4A
:10009E00B40203753F01E53CB40203754001E50B64
:1000AE00B40206E53964036021E50CB40206E53AB4
:1000BE0064036016E50DB40206E53B6403600BE5D0
:1000CE000E64027025E53CB40320E539B4030375D4
:1000DE003D00E53AB40303753E00E53BB4030375FA
:1000EE003F00E53CB4030375400085390B853A0C9F
:1000FE00853B0D853C0EE53964026015E53A6402D8
:10010E00600FE53B64026009E53C64026003020196
:10011E00D2E509647845087007F508F5090201D89B
:10012E000509E50970020508641945086003020116
:10013E00D8E53DB40106E53964026020E53EB40120
:10014E0006E53A64026015E53FB40106E53B64023C
:10015E00600AE540B4010AE53CB40205750A018067
:10016E0003750A00E539B40211E50AB40105753DBF
:10017E00008007E50A7003753D01E53AB40211E50A
:10018E000AB40105753E008007E50A7003753E014D
:10019E00E53BB40211E50AB40105753F008007E5A1
:1001AE000A7003753F01E53CB40211E50AB401057E
:1001BE007540008007E50A700375400175080075EB
:1001CE0009008006750800750978E53824FE60255B
:1001DE0014603D1460552403706AC293741B25117C
:1001EE00F8E6F5A0E53DB40104D2908057E53D70E8
:1001FE0053C290804FC290741B2512F8E6F5A0E50D
:10020E003EB40104D291803CE53E7038C2918034F8
:10021E00C291741B2513F8E6F5A0E53FB40104D294
:10022E00928021E53F701DC2928019C292741B25E7
:10023E0014F8E6F5A0E540B40104D2938006E5403B
:0B024E007002C293D000D0D0D0E0328C
:10031200020259E493A3F8E493A34003F68001F2A6
:1003220008DFF48029E493A3F85407240CC8C333EC
:10033200C4540F4420C8834004F456800146F6DFBB
:10034200E4800B0102040810204080900409E47E3E
:10035200019360BCA3FF543F30E509541FFEE493B0
:10036200A360010ECF54C025E060A840B8E493A377
:10037200FAE493A3F8E493A3C8C582C8CAC583CAA2
:10038200F0A3C8C582C8CAC583CADFE9DEE780BE5A
:010476000085
:10000300EB9FF5F0EA9E42F0E99D42F0EC6480C874
:0600130064809845F02214
:00000001FF
