:03000000020D9B53
:0C0D9B00787FE4F6D8FD75815F020DE260
:100CE600011E08011F080120080121080156000104
:100CF6005700015800015A00014B01014E03014FF4
:100D060003015003015103011303011403011603E8
:100D1600011703012200012300012400012700011D
:100D26001204020A0078010D0101180101540101A3
:100D36001501011A00010F00015B00011900024CA8
:100D460000630228006302100063024900631D2C41
:100D5600C0F9A4B0999282F880908883C6A1868E45
:100D66008B9C40792430191202780010FF0155003F
:100D7600015900010C00010E00022A0000025C006D
:100D86000002080000021B000002520000022500BB
:040D960014011D0126
:100B4900E4F556F557F558F55AC290C291C292C2CA
:100B590093D2AF758911D2AB758DEE758BEDD28EAF
:100B6900F52AF52BF55CF55DF508F509F51BF51C7E
:100B7900F552F553E52B64C8452A701FF52AF52B64
:100B8900055DE55D7002055C0553E553700205528C
:100B9900640B45527005F552755301E55D643C459A
:100BA9005C700CF55CF55D0509E50970020508E561
:100BB90009643C4508700CF508F509051CE51C702D
:100BC90002051BE51D24FE603114606514700302E3
:100BD9000C8E24036003020CE0D3E5539405E5521F
:100BE90094005007AF26120F298005AF55120EA3A6
:100BF900E5547080751D02020C88E555C3941840B0
:100C090003755518E518700B751801E555641860DA
:100C1900020555E50D7009750D01E555600215557B
:100C2900AF55120EE6E5546003020B7D751D038076
:100C39004EC3E526942DE5259400400675250075DB
:100C4900262DE5187013751801E526642D452560D4
:100C5900080526E52670020525E50D7013750D01B9
:100C6900E526641445256008E52615267002152534
:100C7900AF26120F5AE5546003020B7D751D0175ED
:100C89005401020B7D7B017D027F04120E2C7B1C1B
:100C9900E4FD7F02120E2C7B1CE4FD7F03120E2C57
:100CA9007B1CE4FD7F01120E2CE5547006751D01B5
:100CB900755401E5187006751D01751801E50D706B
:100CC90006751D01750D01E5156003020B7D751D86
:0D0CD90001751501020B7D751D01020B7DDB
:100EA300EFC313FE75F00A84FBEE75F00A8485F038
:100EB3005EEF540175F005A4F55FEB60047D0180DE
:100EC300047B1CE4FD7F01120E2CE55E7D01120EF6
:100ED30027AB5F7D017F03120E2C7B107D017F0406
:030EE300020E2CD0
:100EE600EFC313FE75F00A84FBEE75F00A8485F0F5
:100EF6005EEF540175F005A4F55FEB60047D02809A
:100F0600047B1CE4FD7F01120E2CE55E7D02120EB1
:100F160027AB5F7D027F03120E2C7B107D017F04C1
:030F2600020E2C8C
:100F29008F5EE55E75F00A84FB7D017F01120E2C50
:100F3900E55E75F00A84ABF07D017F02120E2C7B11
:100F49000C7D017F03120E2C7B117D017F04020EA3
:010F59002C6B
:100F5A008F5EE55E75F00A84FB7D027F01120E2C1E
:100F6A00E55E75F00A84ABF07D027F02120E2C7BDF
:100F7A000C7D017F03120E2C7B117D017F04020E72
:010F8A002C3A
:050E27002412FB7F0214
:100E2C00EF24FE602414603B146052240370678B23
:100E3C001EBD0203754E02BD0106755601754E03AB
:100E4C00ED7053F556754E03228B1FBD0203754F83
:100E5C0002BD0106755701754F03ED7039F55775D5
:100E6C004F03228B20BD0203755002BD010675583D
:100E7C0001755003ED701FF558755003228B21BD81
:100E8C000203755102BD0106755A01755103ED70CF
:070E9C0005F55A7551032210
:03001B00020800D8
:10080000C0E0C0D075D000C000C2B7758DEE758B4A
:10081000ED052BE52B7002052A209537E54D646325
:10082000454C7006F54CF54D8037C3E54D9402E517
:100830004C9400500B054DE54D7002054C751A00A7
:10084000E54D6402454C7019E51A7002F518751AE9
:1008500001800EE51AB40109751A00754C00754D3A
:1008600063209437E529646345287006F528F52947
:100870008037C3E5299402E5289400500B0529E54B
:100880002970020528750F00E529640245287019B2
:10089000E50F7002F50D750F01800EE50FB401092B
:1008A000750F00752800752963209637E51164637C
:1008B00045107006F510F5118037C3E5119402E577
:1008C000109400500B0511E51170020510755B00C6
:1008D000E511640245107019E55B7002F554755B13
:1008E00001800EE55BB40109755B007510007511A0
:1008F00063209737E54A646345497006F549F54A30
:100900008037C3E54A9402E5499400500B054AE557
:100910004A70020549751900E54A64024549701993
:10092000E5197002F515751901800EE519B4010974
:10093000751900754900754A63054BE54BC394056D
:100940004003754B01E54B64016003020AC6E513E1
:10095000B40306E54E64026021E514B40306E54FD6
:1009600064026016E516B40306E5506402600BE508
:100970001764037025E551B40220E54EB4020375F7
:100980005601E54FB40203755701E550B4020375F3
:100990005801E551B40203755A01E513B40206E5A6
:1009A0004E64036021E514B40206E54F640360164B
:1009B000E516B40206E5506403600BE517640270A7
:1009C00025E551B40320E54EB40303755600E54F09
:1009D000B40303755700E550B40303755800E5519F
:1009E000B40303755A00854E13854F148550168540
:1009F0005117E54E64026015E54F6402600FE55043
:100A000064026009E55164026003020AC0E50B64F8
:100A100078450A7007F50AF50B020AC6050BE50BC7
:100A20007002050A6408450A6003020AC6E556B466
:100A30000106E54E64026020E557B40106E54F6407
:100A4000026015E558B40106E5506402600AE55AF3
:100A5000B4010AE551B40205751201800375120054
:100A6000E54EB40211E512B401057556008007E5A4
:100A7000127003755601E54FB40211E512B4010579
:100A80007557008007E5127003755701E550B402F1
:100A900011E512B401057558008007E51270037561
:100AA0005801E551B40211E512B40105755A0080F0
:100AB00007E5127003755A01750A00750B00800670
:100AC000750A00750B78E54B24FE602514603D1413
:100AD00060552403706AC293742C251EF8E6F5A0B5
:100AE000E556B40104D2908057E5567053C2908009
:100AF0004FC290742C251FF8E6F5A0E557B4010409
:100B0000D291803CE5577038C2918034C291742CE8
:100B10002520F8E6F5A0E558B40104D2928021E53D
:100B200058701DC2928019C292742C2521F8E6F5E6
:100B3000A0E55AB40104D2938006E55A7002C2932C
:090B4000D2B7D000D0D0D0E032D1
:100DA700020B49E493A3F8E493A34003F68001F20E
:100DB70008DFF48029E493A3F85407240CC8C3334D
:100DC700C4540F4420C8834004F456800146F6DF1C
:100DD700E4800B0102040810204080900CE6E47EBA
:100DE700019360BCA3FF543F30E509541FFEE49311
:100DF700A360010ECF54C025E060A840B8E493A3D8
:100E0700FAE493A3F8E493A3C8C582C8CAC583CA02
:100E1700F0A3C8C582C8CAC583CADFE9DEE780BEBA
:010D9A000058
:00000001FF
