:0300000002001EDD
:0C001E00787FE4F6D8FD758109020065CA
:0800D7002010080404081020A9
:0400140002080000DE
:10000300D2AF758911D2AB758DF0758BCBD28E8043
:01001300FEEE
:03001B000200AA36
:1000AA00C0E0C083C082758DF0758BCB0509E50968
:1000BA0070020508640445087004F508F509E509A5
:0D00CA009000DB93F5B0D082D083D0E032FF
:10002A00020003E493A3F8E493A34003F68001F2E9
:10003A0008DFF48029E493A3F85407240CC8C333D7
:10004A00C4540F4420C8834004F456800146F6DFA6
:10005A00E4800B0102040810204080900014E47E22
:10006A00019360BCA3FF543F30E509541FFEE4939B
:10007A00A360010ECF54C025E060A840B8E493A362
:10008A00FAE493A3F8E493A3C8C582C8CAC583CA8D
:10009A00F0A3C8C582C8CAC583CADFE9DEE780BE45
:0100180000E7
:00000001FF
