:030000000207FAFA
:0C07FA00787FE4F6D8FD758141020841CB
:05000E007D0102076BFB
:050013007D0202076BF5
:06076B008D3D8F828E839C
:100771007C007D1E1202ED7C007D3C1202EDAB0778
:10078100AA067C077D081202DBC3E5829FFFE58391
:100791009EFED3EF9400EE940040050BBB00010ACE
:1007A100EAC313FEEB13FF7C007D0A1202ED8F3EBC
:1007B100EAC313FEEB13FF7C007D0A1202ED8D3FAD
:1007C100EB540175F005A4F540E53E6005FBAD3D38
:1007D10080047B1CE4FD7F0112088EE53F2412FB9F
:1007E100AD3D7F0212088EAB40AD3D7F0312088EF6
:0907F1007B10AD3D7F0402088E6F
:100A29008F1CE51C75F00A84FB7D017F0112088E7D
:100A3900E51C7D011208867B0C7D017F0312088E5F
:090A49007B117D017F0402088E7F
:100A52008F41E54175F00A84FB7D027F0112088E09
:100A6200E5417D021208867B0C7D017F0312088E10
:090A72007B117D017F0402088E56
:100A7B007B1CE4FD7F0112088E7B1CE4FD7F0212C0
:100A8B00088E7B1CE4FD7F0312088E7B1CE4FD7F2C
:040A9B000402088EBB
:0808860075F00A84ABF07F025B
:10088E00EF24FE602314603914604F240370638BD1
:10089E002EBD0203753902BD0105D20F753903ED68
:1008AE007050C20F753903228B2FBD0203753A02A9
:1008BE00BD0105D210753A03ED7037C210753A03BB
:1008CE00228B30BD0203753B02BD0105D211753B73
:1008DE0003ED701EC211753B03228B31BD020375F1
:1008EE003C02BD0105D212753C03ED7005C21275B6
:0308FE003C032296
:100AFF003F065B4F666D7D077F6F777C395E79713F
:0A0B0F00BF86DBCFE6EDFD87FFEFA8
:1006D80002080000011800010A00011000011700BB
:1006E800011214011616010B00011101020C000081
:0406F80002140BB825
:1009AC00D2AF758911D2A9758CF0758ACBD28CD245
:1009BC00AB758DEE758BEDD28EE4F533F534F51801
:1009CC00F50AF510F51712000375190A1209018EB4
:1009DC001A8F1B1519E519D3940050F0AF16120A93
:0309EC002980E37C
:100B1900EF4E60147DC87C00ED1D70011CED4C701A
:080B2900F7EF1F70EB1E80E8DE
:010B310022A1
:100AC300C2B07F677E00EF1F70011EEF4E70F7D23A
:0E0AD300B07E007F04EF1F70011EEF4E70F723
:010AE10022F2
:100A9F00C2B00FBF0000D2B00FBF00000FBF0000E9
:100AAF00A2B092147E007F08EF1F70011EEF4E70F0
:030ABF00F7A21487
:010AC2002211
:100AE200E4FD7C01120A9FE433FFC43333335480A4
:0C0AF200FEEDC3134EFD0CBC09EAAF057D
:010AFE0022D5
:0C095800120AC37F017E00120B197FCC35
:100964007E01EF139214EFC313FF30141BC2B00BBC
:10097400BB00000BBB0000D2B07A007B08EB1B70FD
:10098400011AEB4A70F7801BC2B07A007B08EB1B9C
:1009940070011AEB4A70F7D2B00BBB00010A0BBB13
:0709A40000010A0EBE09BBB1
:0109AB002229
:080003001209587F4402096450
:100901001209587FBE120964120AE2AB07120AE209
:10091100750E008F0FAF03EF420FE4AC0EAD0F1257
:100921000221E4FBFA7980783D1201168F1F8E1E99
:100931008D1D8C1CE4FFFE7D207C41AB1FAA1EA9EE
:100941001DA81C120116E4FBFAF9783F12002512CA
:06095100025A8E0E8F0F0A
:01095700227D
:1009EF00FFC0FFF9FFA4FFB0FF99FF92FF82FFF84E
:1009FF00FF80FF90FF88FF83FFC6FFA1FF86FF8E5A
:100A0F00FF8BFF9CFF40FF79FF24FF30FF19FF1280
:0A0A1F00FF02FF78FF00FF10FFFF49
:1006FC00012E08012F08013008013108C10FC1106B
:10070C00C111C112013903013A03013B03013C033E
:10071C00012603012703012803012903C104013722
:10072C000102230078C181C186C18DC185C10AC176
:10073C0003C113C10801386301326301256301361B
:10074C0063022C2710022A0000013501C107C100E9
:0E075C00C18CC10BC10EC102C10902330000E5
:03000B00020619D1
:10061900C0E0C0D0758CF0758ACB300B0BC20BC211
:100629000ED207D20C75350130020BC202C209D2B3
:1006390007C20C753501300754200006852C2A8520
:100649002D2BE52B452A6008E52B152B7002152A61
:10065900300C1C0535E535B40503753501E52B4529
:100669002A700CE535B40207C207D20E7535002091
:100679000C1EE535B401037535051535E52B452AFD
:10068900700EE535B40209C207D20980007535003C
:10069900E53524FE600E1460111460182403701EE1
:1006A900D2B2801CC2B2D2B38018C2B2C2B3D2B421
:1006B900C2B58012C2B2C2B3C2B4D2B58008C2B246
:0F06C900C2B3C2B4C2B5A2079200D0D0D0E03203
:03001B000203508D
:10035000C0E0C083C082C0D0C2B7758DEE758BED92
:100360000534E53470020533209523E538B4630580
:100370007538008021E538C3940250040538C20A5C
:10038000E538B40211200A02C206D20A8008300AF7
:1003900005C20A753863209423E532B463057532CB
:1003A000008021E532C3940250040532C203E532D5
:1003B000B40211200302C201D2038008300305C237
:1003C00003753263209623E525B463057525008007
:1003D00021E525C3940250040525C213E525B40286
:1003E00011201302C20DD2138008301305C21375F9
:1003F0002563209723E536B463057536008021E533
:1004000036C3940250040536C208E536B402112002
:100410000802C205D2088008300805C20875366394
:100420000537E537C394054003753701E5376401A7
:100430006003020584E526B40306E5396402602101
:10044000E527B40306E53A64026016E528B403061E
:10045000E53B6402600BE52964037021E53CB402CE
:100460001CE539B40202D20FE53AB40202D210E51B
:100470003BB40202D211E53CB40202D212E526B42A
:100480000206E53964036021E527B40206E53A6413
:10049000036016E528B40206E53B6403600BE5291A
:1004A00064027021E53CB4031CE539B40302C20FB9
:1004B000E53AB40302C210E53BB40302C211E53CC5
:1004C000B40302C212853926853A27853B28853C2C
:1004D00029E53964026015E53A6402600FE53B6482
:1004E000026009E53C6402600302057EE52464784D
:1004F00045237007F523F5240205840524E52470BF
:1005000002052364084523707B300F06E539640239
:10051000601A301006E53A64026011301106E53BBE
:1005200064026008301209E53CB40204D20480027F
:10053000C204E539B4020C300404C20F8005200463
:1005400002D20FE53AB4020C300404C21080052038
:100550000402D210E53BB4020C300404C211800541
:10056000200402D211E53CB4020C300404C2128013
:1005700005200402D212752300752400800675231D
:1005800000752478E53724FE602914604514606105
:100590002403707AC293E52E25E024EFF582E4343B
:1005A00009F583740193F5A0300F04D290805FC2E7
:1005B00090805BC290E52F25E024EFF582E43409BA
:1005C000F583740193F5A0301004D2918040C2915C
:1005D000803CC291E53025E024EFF582E43409F552
:1005E00083740193F5A0301104D2928021C29280CD
:1005F0001DC292E53125E024EFF582E43409F5834C
:10060000740193F5A0301204D2938002C293D2B742
:09061000D0D0D082D083D0E032BA
:10001E000202C6E86480F8E933E83360110460F048
:10002E00ED33EC337009E8FCE9FDEAFEEBFF220448
:10003E0060DED3EB9FEA9EE99DE8C2E78CF0C2F743
:10004E0095F0400CE8CCF8E9CDF9EACEFAEBCFFB0F
:10005E0012029185D0F05804700320D5B3E80470D5
:10006E00075002B2D50202D092D5EC0460F7E4CC70
:10007E00C0E0C398F8603B94186008400DD0E0FBD8
:10008E000202A8E4FBFAC9FC8028E830E406E4C9C1
:10009E00FBE4CAFCE830E305E4C9CACBFCE854072C
:1000AE006010F8C3E913F9EA13FAEB13FBEC13FC37
:1000BE00D8F130F52FC3E49CFCEF9BFFEE9AFEEDDA
:1000CE0099FDD0E0FBEF4E4D4C701222DB03020285
:1000DE00CDEC2CFCEF33FFEE33FEED33FDED30E7D0
:1000EE00EB0202A8EF2BFFEE3AFEED39FDD0E0FB5E
:1000FE0050130BBB00030202D0ED13FDEE13FEEF07
:08010E0013FFEC13FC0202A830
:10011600EC4D6011E8497017ED33EC3304600DE4E3
:10012600FCFFFEFD22E933E8330470F80202C61232
:10013600029158046009E4CC248150062850090233
:1001460002D02840030202CDC0E0EB4A7044B980D9
:1001560006D0E0FB0202BCEF4E701CBD8008EBFF30
:10016600EAFEE9FD80EBE98DF0A4FEE5F00201FF71
:10017600E9CDF9EAFEEBFFEF89F0A4FCE5F0CE89C4
:10018600F0A42EFFE435F0CD89F0A42DFEE435F081
:100196008067EF4E7005BD80D780C3EF8BF0A4ACAF
:1001A600F0EE8BF0A42CFCE435F0F8EF8AF0A42CEA
:1001B600E5F038FCE433CB8DF0A42CFCE5F03BF8FD
:1001C600EE8AF0A42CFCE5F038F8E433CF89F0A4ED
:1001D6002CFCE5F038CF3400CE89F0A42FFFE5F0F3
:1001E6003EFEE433C98DF0A42EFEE5F039CD8AF04B
:1001F600A42FFFE5F03EFEE43DFD33D0E0FB5007C3
:100206000BBB000F0202D0EC2CFCEF33FFEE33FEEB
:06021600ED33FD0202A819
:10021C0075F020800E75F010800575F0087D007E5D
:10022C00007F003392D530D503120342EC334010DB
:10023C00EF33FFEE33FEED33FDEC33FCD5F0ED2266
:0E024C00E5F0247EA2D513CC92E7CDCEFF22A2
:10025A00EDD2E7CD33EC3392D524814006E4FFFE9C
:10026A00FDFC22FCE4CFCECDCC24E0501174FF80FB
:10027A00EDC3CC13CCCD13CDCE13CECF13CF047098
:07028A00F030D5DE02034253
:10029100E9D2E7C933E833F892D5EDD2E7CD33ECB3
:0702A10033FC5002B2D5222C
:1002A800EC30E7100FBF000C0EBE00080DBD0004B7
:1002B8000BEB6014A2D5EB13FCED92E7FD2274FF63
:1002C800FCFDFEFF22E480F8A2D574FF13FC7D80BC
:0302D800E480EFD0
:100806000209ACE493A3F8E493A34003F68001F253
:1008160008DFF48029E493A3F85407240CC8C333F3
:10082600C4540F4420C8834004F456800146F6DFC2
:10083600E4800B01020408102040809006D8E47E74
:10084600019360BCA3FF543F30E509541FFEE493B7
:10085600A360010ECF54C025E060A840B8E493A37E
:10086600FAE493A3F8E493A3C8C582C8CAC583CAA9
:10087600F0A3C8C582C8CAC583CADFE9DEE780BE61
:01076A00008E
:1002DB00EF8DF0A4A8F0CF8CF0A428CE8DF0A42E37
:0202EB00FE22F1
:1002ED00BC000BBE0029EF8DF084FFADF022E4CCF5
:1002FD00F875F008EF2FFFEE33FEEC33FCEE9DECBE
:10030D00984005FCEE9DFE0FD5F0E9E4CEFD22ED03
:10031D00F8F5F0EE8420D21CFEADF075F008EF2F4D
:10032D00FFED33FD4007985006D5F0F222C398FD3E
:05033D000FD5F0EA22DB
:0E034200C3E49FFFE49EFEE49DFDE49CFC22CC
:00000001FF
