:030000000207D024
:0C07D000787FE4F6D8FD75813C02081724
:050003007D0102074130
:05000E007D0202074124
:060741008D158F828E83EE
:100747007C007D1E12051D7C007D3C12051DAB073C
:10075700AA067C077D0812050BC3E5829FFFE58388
:100767009EFED3EF9400EE940040050BBB00010AF8
:10077700EAC313FEEB13FF7C007D0A12051D8F16DB
:10078700EAC313FEEB13FF7C007D0A12051D8D17CC
:10079700EB540175F005A4F518E5166005FBAD15DA
:1007A70080047B1CE4FD7F01120864E5172412FB1B
:1007B700AD157F02120864AB18AD157F03120864EC
:0907C7007B10AD157F04020864EB
:100953008F15E51575F00A84FB7D017F011208648C
:10096300E5157D0112085C7B0C7D017F0312086491
:090973007B117D017F0402086480
:10097C008F15E51575F00A84FB7D027F0112086462
:10098C00E5157D0212085C7B0C7D017F0312086467
:09099C007B117D017F0402086457
:1009F1007B1CE4FD7F011208647B1CE4FD7F021275
:100A010008647B1CE4FD7F031208647B1CE4FD7F0A
:040A1100040208646F
:08085C0075F00A84ABF07F0285
:10086400EF24FE602314603914604F240370638BFB
:100874002EBD0203753902BD0105D20F753903ED92
:100884007050C20F753903228B2FBD0203753A02D3
:10089400BD0105D210753A03ED7037C210753A03E5
:1008A400228B30BD0203753B02BD0105D211753B9D
:1008B40003ED701EC211753B03228B31BD0203751B
:1008C4003C02BD0105D212753C03ED7005C21275E0
:0308D4003C0322C0
:1006AA0002080000011400010A00010E00011300F3
:1006BA00011014010B00010F01020C000202110BC0
:0106CA00B877
:1002E700D2AF758911D2A9758CF0758ACBD28CD211
:1002F700AB758DEE758BEDD28EE4F533F534F514D1
:10030700F50AF50EF51320050A050DE50D70020532
:100317000CD2057B007A00790CAF12AE11120A15C8
:10032700E53464C84533702AF533F53405140513ED
:10033700E513B40B03751301050BE50BC3941440C8
:1003470003750B14E50945086008E50915097002EE
:100357001508E514B43C05E4F514050AE50AB43CB0
:1003670005E4F50A050E300609300106300D0320B5
:100377000503E4F50BE50F24FE603E147003020449
:100387009E1470030204DC24036003020505E513D1
:10039700D394055007AF101209538007AF09AE0871
:1003A700120003200D05750F02D20DE50BB41406DC
:1003B700750F04E4F50B0204FFC3E50994C0E508D3
:1003C70094A840067508A87509C0200660D206D310
:1003D700E50994B8E50894A140087508A87509C00F
:1003E700804BE5094508700E74082509F50974075F
:1003F7003508F508803774082509F50974073508A5
:10040700F508FEAF097C077D0812051DED4C601D40
:10041700AE08AF097C077D0812051DEF2401FFE434
:100427003EFE7C077D0812050B8E088F0920014BC5
:10043700D201C3E5099408E50894075007E4F508D5
:10044700F509803774F82509F50974F83508F508B2
:10045700FEAF097C077D0812051DED4C601DAE0837
:10046700AF097C077D0812051DEF2401FFE43EFE5E
:100477007C077D0812050B8E088F09AF09AE08129D
:10048700000E200D05750F03D20DE50BB40A067596
:100497000F01E4F50B8061E510C3942D400375103F
:1004A7002D20060AD206E510642D600205102001F2
:1004B7000AD201E510641460021510AF1012097C0E
:1004C700200D05750F01D20DE50BB40A06750F0156
:1004D700E4F50B80231209F1200D05750F01D20DEC
:1004E700200605750F01D206200105750F01D201FF
:1004F700200505750F01D20512001302030D750FB4
:040507000102030DDD
:0706CB00C115C11401190063
:1009A500E4FDFC201508D20BD2158E2C8F2D3015A9
:1009B5000B300E087C007D01C20EC215ED64014CA2
:0509C5007002D322C303
:0109CA00220A
:1009CB00E4FDFC201408D202D2148E2C8F2D30148F
:1009DB000B3009087C007D01C209C214ED64014C87
:0509EB007002D322C3DD
:0109F00022E4
:1008D700EEC313FEEF13FBAA06C216E5197008AFA5
:1008E700031209A5751902E519B4020CAF03AE028C
:1008F7001209A55003751903E519B4030EAF03AE2A
:10090700021209CB5005E4F519D216301602D3228C
:01091700C31C
:0109180022BC
:100A15008B158A16891712057245F060121208D7D0
:100A2500500DAB15AA16A91774FFF5F012059D22F6
:10091900FFC0FFF9FFA4FFB0FF99FF92FF82FFF824
:10092900FF80FF90FF88FF83FFC6FFA1FF86FF8E30
:10093900FF8BFF9CFF40FF79FF24FF30FF19FF1257
:0A094900FF02FF78FF00FF10FFFF20
:1006D200012E08012F08013008013108C10FC11095
:1006E200C111C112013903013A03013B03013C0369
:1006F200012603012703012803012903C10401374D
:100702000102230078C181C186C18DC185C10AC1A0
:1007120003C113C108013863013263012563013645
:1007220063022C2710022A0000C10BC10EC102C1B4
:0E07320009013501C107C100C18C023300006E
:03000B000205EB00
:1005EB00C0E0C0D0758CF0758ACB300B0BC20BC240
:1005FB000ED207D20C75350130020BC202C209D2E2
:10060B0007C20C753501300754200006852C2A854E
:10061B002D2BE52B452A6008E52B152B7002152A8F
:10062B00300C1C0535E535B40503753501E52B4557
:10063B002A700CE535B40207C207D20E75350020BF
:10064B000C1EE535B401037535051535E52B452A2B
:10065B00700EE535B40209C207D20980007535006A
:10066B00E53524FE600E1460111460182403701E0F
:10067B00D2B2801CC2B2D2B38018C2B2C2B3D2B44F
:10068B00C2B58012C2B2C2B3C2B4D2B58008C2B274
:0F069B00C2B3C2B4C2B5A2079200D0D0D0E03231
:03001B0002001EC2
:10001E00C0E0C083C082C0D0C2B7758DEE758BEDC7
:10002E000534E53470020533209523E538B46305B5
:10003E007538008021E538C3940250040538C20A91
:10004E00E538B40211200A02C206D20A8008300A2C
:10005E0005C20A753863209423E532B46305753200
:10006E00008021E532C3940250040532C203E5320A
:10007E00B40211200302C201D2038008300305C26C
:10008E0003753263209623E525B46305752500803C
:10009E0021E525C3940250040525C213E525B402BB
:1000AE0011201302C20DD2138008301305C213752E
:1000BE002563209723E536B463057536008021E568
:1000CE0036C3940250040536C208E536B402112038
:1000DE000802C205D2088008300805C208753663CA
:1000EE000537E537C394054003753701E5376401DD
:1000FE006003020252E526B40306E539640260216C
:10010E00E527B40306E53A64026016E528B4030653
:10011E00E53B6402600BE52964037021E53CB40203
:10012E001CE539B40202D20FE53AB40202D210E550
:10013E003BB40202D211E53CB40202D212E526B45F
:10014E000206E53964036021E527B40206E53A6448
:10015E00036016E528B40206E53B6403600BE5294F
:10016E0064027021E53CB4031CE539B40302C20FEE
:10017E00E53AB40302C210E53BB40302C211E53CFA
:10018E00B40302C212853926853A27853B28853C61
:10019E0029E53964026015E53A6402600FE53B64B7
:1001AE00026009E53C6402600302024CE5246478B7
:1001BE0045237007F523F5240202520524E5247029
:1001CE0002052364084523707B300F06E53964026F
:1001DE00601A301006E53A64026011301106E53BF4
:1001EE0064026008301209E53CB40204D2048002B5
:1001FE00C204E539B4020C300404C20F8005200499
:10020E0002D20FE53AB4020C300404C2108005206D
:10021E000402D210E53BB4020C300404C211800576
:10022E00200402D211E53CB4020C300404C2128048
:10023E0005200402D2127523007524008006752352
:10024E0000752478E53724FE60291460451460613A
:10025E002403707AC293E52E25E02419F582E43446
:10026E0009F583740193F5A0300F04D290805FC21C
:10027E0090805BC290E52F25E02419F582E43409C5
:10028E00F583740193F5A0301004D2918040C29191
:10029E00803CC291E53025E02419F582E43409F55D
:1002AE0083740193F5A0301104D2928021C2928002
:1002BE001DC292E53125E02419F582E43409F58357
:1002CE00740193F5A0301204D2938002C293D2B778
:0902DE00D0D0D082D083D0E032F0
:0400130075870122CA
:1007DC000202E7E493A3F8E493A34003F68001F24A
:1007EC0008DFF48029E493A3F85407240CC8C3331E
:1007FC00C4540F4420C8834004F456800146F6DFED
:10080C00E4800B01020408102040809006AAE47ECC
:10081C00019360BCA3FF543F30E509541FFEE493E1
:10082C00A360010ECF54C025E060A840B8E493A3A8
:10083C00FAE493A3F8E493A3C8C582C8CAC583CAD3
:10084C00F0A3C8C582C8CAC583CADFE9DEE780BE8B
:0107400000B8
:10050B00EF8DF0A4A8F0CF8CF0A428CE8DF0A42E04
:02051B00FE22BE
:10051D00BC000BBE0029EF8DF084FFADF022E4CCC2
:10052D00F875F008EF2FFFEE33FEEC33FCEE9DEC8B
:10053D00984005FCEE9DFE0FD5F0E9E4CEFD22EDD1
:10054D00F8F5F0EE8420D21CFEADF075F008EF2F1B
:10055D00FFED33FD4007985006D5F0F222C398FD0C
:05056D000FD5F0EA22A9
:10057200BB010A89828A83E0F5F0A3E02250068754
:10058200F009E71922BBFE07E3F5F009E319228916
:0B059200828A83E493F5F07401932249
:10059D00BB010789828A830205D5500B09C5F02757
:1005AD00F7C5F01937F722BBFE0D09F8E325F0F377
:1005BD00C5F019E338F322F889828A8374019325F3
:0805CD00F0C5F0F8E4933822B8
:1005D500C5F0F8A3E028F0C5F0F8E58215827002B1
:0605E5001583E038F0224E
:00000001FF
