:03000000020003F8
:0C000300787FE4F6D8FD75810902004A00
:0800AF002010080404081020D1
:0400B700020800003B
:0A00A500EF1F70011E144E70F722C9
:10008F00E4FDED9000B393F5B07FF47E011200A56F
:06009F000DBD04EE80EA35
:10000F0002008FE493A3F8E493A34003F68001F278
:10001F0008DFF48029E493A3F85407240CC8C333F2
:10002F00C4540F4420C8834004F456800146F6DFC1
:10003F00E4800B01020408102040809000B7E47E9A
:10004F00019360BCA3FF543F30E509541FFEE493B6
:10005F00A360010ECF54C025E060A840B8E493A37D
:10006F00FAE493A3F8E493A3C8C582C8CAC583CAA8
:10007F00F0A3C8C582C8CAC583CADFE9DEE780BE60
:0100BB000044
:00000001FF
